{"abi":[{"type":"constructor","inputs":[{"name":"_collateralToken","type":"address","internalType":"address"},{"name":"_priceFeed","type":"address","internalType":"address"},{"name":"stabletokenAddress","type":"address","internalType":"address"}],"stateMutability":"nonpayable"},{"type":"function","name":"deposit","inputs":[{"name":"amount","type":"uint256","internalType":"uint256"}],"outputs":[],"stateMutability":"nonpayable"},{"type":"function","name":"getCollateralPrice","inputs":[],"outputs":[{"name":"","type":"uint256","internalType":"uint256"}],"stateMutability":"view"},{"type":"function","name":"getCollateralValueInUsd","inputs":[{"name":"amount","type":"uint256","internalType":"uint256"}],"outputs":[{"name":"","type":"uint256","internalType":"uint256"}],"stateMutability":"view"},{"type":"function","name":"getHealthFactor","inputs":[{"name":"user","type":"address","internalType":"address"}],"outputs":[{"name":"","type":"uint256","internalType":"uint256"}],"stateMutability":"view"},{"type":"function","name":"mint","inputs":[{"name":"amount","type":"uint256","internalType":"uint256"}],"outputs":[],"stateMutability":"nonpayable"},{"type":"event","name":"Deposit","inputs":[{"name":"user","type":"address","indexed":true,"internalType":"address"},{"name":"token","type":"address","indexed":true,"internalType":"address"},{"name":"amount","type":"uint256","indexed":true,"internalType":"uint256"}],"anonymous":false},{"type":"error","name":"ReentrancyGuardReentrantCall","inputs":[]},{"type":"error","name":"StabletokenEngine__CollateralTokenAddressesAndPriceFeedsAddressesDontMatch","inputs":[]},{"type":"error","name":"StabletokenEngine__NotCollateral","inputs":[{"name":"token","type":"address","internalType":"address"}]},{"type":"error","name":"StabletokenEngine__TransferFailed","inputs":[]},{"type":"error","name":"StabletokenEngine__ZeroAmount","inputs":[]}],"bytecode":{"object":"0x60e0604052670de0b6b3a76400005f5560326001556064600255348015610024575f5ffd5b50604051610c6b380380610c6b8339818101604052810190610046919061019e565b600161006461005961010e60201b60201c565b61013760201b60201c565b5f01819055508273ffffffffffffffffffffffffffffffffffffffff1660c08173ffffffffffffffffffffffffffffffffffffffff16815250508173ffffffffffffffffffffffffffffffffffffffff1660a08173ffffffffffffffffffffffffffffffffffffffff16815250508073ffffffffffffffffffffffffffffffffffffffff1660808173ffffffffffffffffffffffffffffffffffffffff16815250505050506101ee565b5f7f9b779b17422d0df92223018b32b4d1fa46e071723d6817e2486d003becc55f005f1b905090565b5f819050919050565b5f5ffd5b5f73ffffffffffffffffffffffffffffffffffffffff82169050919050565b5f61016d82610144565b9050919050565b61017d81610163565b8114610187575f5ffd5b50565b5f8151905061019881610174565b92915050565b5f5f5f606084860312156101b5576101b4610140565b5b5f6101c28682870161018a565b93505060206101d38682870161018a565b92505060406101e48682870161018a565b9150509250925092565b60805160a05160c051610a4f61021c5f395f8181610213015261028e01525f6103e901525f5050610a4f5ff3fe608060405234801561000f575f5ffd5b5060043610610055575f3560e01c8063534e2e1514610059578063a0712d6814610089578063b6b55f25146100a5578063f7683bbc146100c1578063fe6bcd7c146100df575b5f5ffd5b610073600480360381019061006e919061062e565b61010f565b6040516100809190610668565b60405180910390f35b6100a3600480360381019061009e919061062e565b610120565b005b6100bf60048036038101906100ba919061062e565b61017b565b005b6100c961036f565b6040516100d69190610668565b60405180910390f35b6100f960048036038101906100f491906106db565b61037d565b6040516101069190610668565b60405180910390f35b5f6101198261038e565b9050919050565b805f810361015a576040517fd875dd2500000000000000000000000000000000000000000000000000000000815260040160405180910390fd5b6101626103a9565b5f61016c8361038e565b9050506101776103cb565b5050565b805f81036101b5576040517fd875dd2500000000000000000000000000000000000000000000000000000000815260040160405180910390fd5b6101bd6103a9565b8160035f3373ffffffffffffffffffffffffffffffffffffffff1673ffffffffffffffffffffffffffffffffffffffff1681526020019081526020015f205f8282546102099190610733565b92505081905550817f000000000000000000000000000000000000000000000000000000000000000073ffffffffffffffffffffffffffffffffffffffff163373ffffffffffffffffffffffffffffffffffffffff167f5548c837ab068cf56a2c2479df0882a4922fd203edb7517321831d95078c5f6260405160405180910390a45f7f000000000000000000000000000000000000000000000000000000000000000073ffffffffffffffffffffffffffffffffffffffff166323b872dd3330866040518463ffffffff1660e01b81526004016102e993929190610775565b6020604051808303815f875af1158015610305573d5f5f3e3d5ffd5b505050506040513d601f19601f8201168201806040525081019061032991906107df565b905080610362576040517fcf14fe7f00000000000000000000000000000000000000000000000000000000815260040160405180910390fd5b5061036b6103cb565b5050565b5f6103786103e5565b905090565b5f610387826104a2565b9050919050565b5f816103986103e5565b6103a2919061080a565b9050919050565b6103b1610568565b60026103c36103be6105a9565b6105d2565b5f0181905550565b60016103dd6103d86105a9565b6105d2565b5f0181905550565b5f5f7f000000000000000000000000000000000000000000000000000000000000000073ffffffffffffffffffffffffffffffffffffffff1673__$d7024942c3960109aa61ce18f4ab3e7f01$__63f34111d590916040518263ffffffff1660e01b815260040161045691906108a6565b60a060405180830381865af4158015610471573d5f5f3e3d5ffd5b505050506040513d601f19601f820116820180604052508101906104959190610945565b5050509150508091505090565b5f5f60035f8473ffffffffffffffffffffffffffffffffffffffff1673ffffffffffffffffffffffffffffffffffffffff1681526020019081526020015f205490505f60045f8573ffffffffffffffffffffffffffffffffffffffff1673ffffffffffffffffffffffffffffffffffffffff1681526020019081526020015f2054905060025481610533919061080a565b6001545f546105418561038e565b61054b919061080a565b610555919061080a565b61055f91906109e9565b92505050919050565b6105706105db565b156105a7576040517f3ee5aeb500000000000000000000000000000000000000000000000000000000815260040160405180910390fd5b565b5f7f9b779b17422d0df92223018b32b4d1fa46e071723d6817e2486d003becc55f005f1b905090565b5f819050919050565b5f60026105ee6105e96105a9565b6105d2565b5f015414905090565b5f5ffd5b5f819050919050565b61060d816105fb565b8114610617575f5ffd5b50565b5f8135905061062881610604565b92915050565b5f60208284031215610643576106426105f7565b5b5f6106508482850161061a565b91505092915050565b610662816105fb565b82525050565b5f60208201905061067b5f830184610659565b92915050565b5f73ffffffffffffffffffffffffffffffffffffffff82169050919050565b5f6106aa82610681565b9050919050565b6106ba816106a0565b81146106c4575f5ffd5b50565b5f813590506106d5816106b1565b92915050565b5f602082840312156106f0576106ef6105f7565b5b5f6106fd848285016106c7565b91505092915050565b7f4e487b71000000000000000000000000000000000000000000000000000000005f52601160045260245ffd5b5f61073d826105fb565b9150610748836105fb565b92508282019050808211156107605761075f610706565b5b92915050565b61076f816106a0565b82525050565b5f6060820190506107885f830186610766565b6107956020830185610766565b6107a26040830184610659565b949350505050565b5f8115159050919050565b6107be816107aa565b81146107c8575f5ffd5b50565b5f815190506107d9816107b5565b92915050565b5f602082840312156107f4576107f36105f7565b5b5f610801848285016107cb565b91505092915050565b5f610814826105fb565b915061081f836105fb565b925082820261082d816105fb565b9150828204841483151761084457610843610706565b5b5092915050565b5f819050919050565b5f61086e61086961086484610681565b61084b565b610681565b9050919050565b5f61087f82610854565b9050919050565b5f61089082610875565b9050919050565b6108a081610886565b82525050565b5f6020820190506108b95f830184610897565b92915050565b5f69ffffffffffffffffffff82169050919050565b6108dd816108bf565b81146108e7575f5ffd5b50565b5f815190506108f8816108d4565b92915050565b5f819050919050565b610910816108fe565b811461091a575f5ffd5b50565b5f8151905061092b81610907565b92915050565b5f8151905061093f81610604565b92915050565b5f5f5f5f5f60a0868803121561095e5761095d6105f7565b5b5f61096b888289016108ea565b955050602061097c8882890161091d565b945050604061098d88828901610931565b935050606061099e88828901610931565b92505060806109af888289016108ea565b9150509295509295909350565b7f4e487b71000000000000000000000000000000000000000000000000000000005f52601260045260245ffd5b5f6109f3826105fb565b91506109fe836105fb565b925082610a0e57610a0d6109bc565b5b82820490509291505056fea26469706673582212207b978431e02df2f41cedc875a0dffddb135d0a8ce54c7ce4d56db25aebc25f7764736f6c634300081d0033","linkReferences":{"src/library/Oracle.sol":{"Oracle":[{"start":1596,"length":20}]}}},"methodIdentifiers":{"deposit(uint256)":"b6b55f25","getCollateralPrice()":"f7683bbc","getCollateralValueInUsd(uint256)":"534e2e15","getHealthFactor(address)":"fe6bcd7c","mint(uint256)":"a0712d68"},"id":11}