{"abi":[{"type":"function","name":"getOraclePrice","inputs":[{"name":"_priceFeed","type":"AggregatorV3Interface","internalType":"contract AggregatorV3Interface"}],"outputs":[{"name":"","type":"uint80","internalType":"uint80"},{"name":"","type":"int256","internalType":"int256"},{"name":"","type":"uint256","internalType":"uint256"},{"name":"","type":"uint256","internalType":"uint256"},{"name":"","type":"uint80","internalType":"uint80"}],"stateMutability":"view"},{"type":"error","name":"OracleLib__StalePrice","inputs":[]}],"bytecode":{"object":"0x6103d061004d600b8282823980515f1a6073146041577f4e487b71000000000000000000000000000000000000000000000000000000005f525f60045260245ffd5b305f52607381538281f3fe7300000000000000000000000000000000000000003014608060405260043610610034575f3560e01c8063f34111d514610038575b5f5ffd5b610052600480360381019061004d91906101d5565b61006c565b604051610063959493929190610254565b60405180910390f35b5f5f5f5f5f5f5f5f5f5f8a73ffffffffffffffffffffffffffffffffffffffff1663feaf968c6040518163ffffffff1660e01b815260040160a060405180830381865afa1580156100bf573d5f5f3e3d5ffd5b505050506040513d601f19601f820116820180604052508101906100e39190610323565b945094509450945094505f82148061011257508469ffffffffffffffffffff168169ffffffffffffffffffff16105b15610149576040517fc4a1093a00000000000000000000000000000000000000000000000000000000815260040160405180910390fd5b848484848499509950995099509950505050505091939590929450565b5f5ffd5b5f73ffffffffffffffffffffffffffffffffffffffff82169050919050565b5f6101938261016a565b9050919050565b5f6101a482610189565b9050919050565b6101b48161019a565b81146101be575f5ffd5b50565b5f813590506101cf816101ab565b92915050565b5f602082840312156101ea576101e9610166565b5b5f6101f7848285016101c1565b91505092915050565b5f69ffffffffffffffffffff82169050919050565b61021e81610200565b82525050565b5f819050919050565b61023681610224565b82525050565b5f819050919050565b61024e8161023c565b82525050565b5f60a0820190506102675f830188610215565b610274602083018761022d565b6102816040830186610245565b61028e6060830185610245565b61029b6080830184610215565b9695505050505050565b6102ae81610200565b81146102b8575f5ffd5b50565b5f815190506102c9816102a5565b92915050565b6102d881610224565b81146102e2575f5ffd5b50565b5f815190506102f3816102cf565b92915050565b6103028161023c565b811461030c575f5ffd5b50565b5f8151905061031d816102f9565b92915050565b5f5f5f5f5f60a0868803121561033c5761033b610166565b5b5f610349888289016102bb565b955050602061035a888289016102e5565b945050604061036b8882890161030f565b935050606061037c8882890161030f565b925050608061038d888289016102bb565b915050929550929590935056fea26469706673582212201ca4e846502d2cbd2d3fb671209c8f435556e5c848105c36eff21481a32691f464736f6c634300081d0033","linkReferences":{}},"methodIdentifiers":{"getOraclePrice(AggregatorV3Interface)":"f34111d5"},"id":12}